:0400000007EF00F016
:10000800528209ED00F053EF04F00600FACF1BF01E
:10001800FBCF1CF0E9CF1DF0EACF1EF0E1CF1FF0B7
:10002800E2CF20F0D9CF21F0DACF22F0F3CF23F0BE
:10003800F4CF24F0F6CF25F0F7CF26F0F8CF27F04D
:10004800F5CF28F052C029F053C02AF054C02BF045
:1000580055C02CF09EAA0AD0BCEC04F036503710DC
:10006800D8B404D0000E416E010E406E9DB29EA21F
:100078003BD0020E40184110D8A436D046C001F03B
:1000880047C002F085EC03F03A4A3B2A640E3A185E
:100098003B10D8A40ED038043910D8A403D0464A4F
:1000A800472A03D04606D8A04706000E3B6E000E2E
:1000B8003A6E38043910D8A409D00B0E46184710E8
:1000C800D8A404D0000E396E000E386E385039109E
:1000D800D8A409D0462807E14728D8A404D0000EA0
:1000E800396E010E386E9E929DB09EA016D24004C5
:1000F8004110D8A412D240044110D8A409D24C040B
:100108004D10D8A448D04E4A4F2A50C001F051C0D3
:1001180002F0000E046E0E0E036E87EC04F0800EE3
:10012800156E000E166E0150152602501622D89034
:100138004E34D96E4F34DA6E1550D9261650DA225D
:10014800010EDE6E000EDD6E50C001F051C002F0EF
:10015800000E046E0E0E036E87EC04F0FE0E156E94
:10016800FF0E166E4EC017F04FC018F0D890173615
:1001780018361550172616501822800E196E000EC4
:100188001A6E1750192618501A2201501924D96EC0
:1001980002501A2049D0020E4C184D10D8A446D04F
:1001A8004E06D8A04F0650C001F051C002F0000E14
:1001B800046E0E0E036E87EC04F0800E156E000EB2
:1001C800166E0150152602501622D8904E34D96E5C
:1001D8004F34DA6E1550D9261650DA22010EDE6E2B
:1001E800000EDD6E50C001F051C002F0000E046E2A
:1001F8000E0E036E87EC04F04EC015F04FC016F0DB
:10020800D89015361636020E1526000E1622800EC8
:10021800176E000E186E155017261650182201502A
:100228001724D96E02501820DA6E77D0030E4C18B6
:100238004D10D8A42FD05006D8A0510650C001F0B8
:1002480051C002F0000E046E0E0E036E87EC04F02F
:10025800800E156E000E166E0150152602501622DD
:10026800D8904E34D96E4F34DA6E1550D9261650C0
:10027800DA22010EDE6E000EDD6E010E5024016ED4
:10028800000E5120026E000E046E0E0E036E87ECF7
:1002980004F032D0040E4C184D10D8A442D0504A65
:1002A800512A50C001F051C002F0000E046E0E0E2B
:1002B800036E87EC04F0800E156E000E166E01506A
:1002C800152602501622D8904E34D96E4F34DA6E65
:1002D8001550D9261650DA22010EDE6E000EDD6E9C
:1002E800FF0E5024016EFF0E5120026E000E046EA8
:1002F8000E0E036E87EC04F0800E156E000E166E5F
:100308000150152602501622D8904E34D96E4F341B
:10031800DA6E1550D9261650DA22000EDE6E000E5F
:10032800DD6E50504A185DE151504B18D8A459D091
:100338004E50481856E14F504918D8A452D0310EA3
:10034800AD6E3E4A3F2A2AEC04F0030E0D16000E4D
:100358000E16010E0D244A6E000E0E204B6E2AEC6E
:1003680004F00DC00FF00EC010F0000E126E050E56
:10037800116EC7EC03F0010E0F24486E000E10201A
:10038800496E50504A182DE151504B18D8A429D025
:100398004E50481826E14F504918D8A422D0010ED3
:1003A8004A24156E000E4B20166E030E1516000E0D
:1003B8001616010E15244A6E000E16204B6E010EFD
:1003C80048240F6E000E4920106E000E126E050EA6
:1003D800116EC7EC03F0010E0F24486E000E1020BA
:1003E800496E4AC001F04BC002F0000E046E0E0EBA
:1003F800036E87EC04F0800E156E000E166E015029
:10040800152602501622D8904834D96E4934DA6E2F
:100418001550D9261650DA22010EDE6E000EDD6E5A
:10042800000190B102D0899A01D0898A000192B165
:1004380002D08D9001D08D80000194B102D08D92B0
:1004480001D08D82000196B102D08D9401D08D84A7
:10045800000198B102D0899E01D0898E00019EB119
:1004680002D0899001D089800001A0B102D0899280
:1004780001D089820001A2B102D0899401D0898477
:100488000001A4B102D0899601D089860001A6B1E5
:1004980002D0899801D089880001ACB102D08B9034
:1004A80001D08B800001AEB102D08B9201D08B823B
:1004B8000001B0B102D08B9401D08B840001B2B19D
:1004C80002D08B9601D08B860001B4B102D08B98F4
:1004D80001D08B880001BAB102D08C9001D08C80F9
:1004E8000001BCB102D08C9201D08C820001BEB157
:1004F80002D08C9401D08C840001C0B102D08C96BB
:1005080001D08C860001C2B102D08C9801D08C88B1
:100518009E900B0ECF6EDB0ECE6E2CC055F02BC00E
:1005280054F02AC053F029C052F028C0F5FF27C064
:10053800F8FF26C0F7FF25C0F6FF24C0F4FF23C04C
:10054800F3FF22C0DAFF21C0D9FF20C0E2FF1FC09D
:10055800E1FF1EC0EAFF1DC0E9FF1CC0FBFF1BC076
:10056800FAFF52921100000E2E6ED40E2D6EABECD7
:1005780004F0000E956E000E926E000E946E000E42
:10058800966E9380938293849386000E8C6E000EF1
:100598008B6E000E896E000E8D6ED39CD38AD38825
:1005A800D08E9D809F809E90950ECD6E0B0ECF6E47
:1005B800DB0ECE6E010ECB6E040ECA6E9AEC04F002
:1005C800B8EC04F0F28E000E516E010E506E000E63
:1005D8004F6E010E4E6E50C02DF051C02EF0000E21
:1005E800306E0E0E2F6E74EC04F0800E336E000E1B
:1005F800346E2D5033262E503422D8904E34D96E76
:100608004F34DA6E3350D9263450DA22010EDE6EBA
:10061800000EDD6E4AC02DF04BC02EF0000E306E7D
:100628000E0E2F6E74EC04F0800E336E000E346ED6
:100638002D5033262E503422D8904834D96E493460
:10064800DA6E3350D9263450DA22010EDE6E000EEF
:10065800DD6E50C02DF051C02EF0000E306E0E0E23
:100668002F6E74EC04F0800E336E000E346E2D5035
:1006780033262E503422D8904E34D96E4F34DA6E49
:100688003350D9263450DA22DF50356E353A3546A4
:1006980089503518DF0B3518896E898281B004D0EE
:1006A800000E4D6E040E11D081B204D0000E4D6EB6
:1006B800010E0BD081B404D0000E4D6E020E05D091
:1006C80081B604D0000E4D6E030E4C6E4E504F1086
:1006D800D8B40ED0060E4E184F10D8B409D05050CA
:1006E8005110D8B405D0050E50185110D8A4D6D73B
:1006F800000E416E020E406EAB9E9D829F829E92BE
:10070800CDD701503C5C3D50800A036E0250800AF0
:100718000358D8B015D0898A8D808D828D84898EB2
:10072800898089828984898689888B808B828B8459
:100738008B868B888C808C828C848C868C8814D059
:10074800899A8D908D928D94899E899089928994A9
:10075800899689988B908B928B948B968B988C909A
:100768008C928C948C968C983C4A3D2A3DBE120003
:100778003D5004E10A0E3C5CD8A01200000E3D6E0C
:10078800000E3C6E1200000E146E10AE06D00F6CF8
:10079800101ED8B0102A010E146E12AE04D0116CBF
:1007A800121ED8B0122A11501210D8B418D0010E47
:1007B800136E04D0D89011361236132A12AEFAD717
:1007C80011500F5C12501058D8A004D011500F5E71
:1007D8001250105AD89012321132132EF1D71450E9
:1007E800D8B404D00F6C101ED8B0102A0FC00FF068
:1007F80010C010F01200000E096E000E0A6E000EF6
:100808000B6E000E0C6E01A008D00550092606508C
:100818000A2207500B2208500C22D89005360636BB
:1008280007360836D89004320332023201320150BA
:10083800021003100410D8A4E6D709C001F00AC0BA
:1008480002F00BC003F00CC004F0120042C001F02B
:1008580043C002F044C003F045C004F06D0E056EBD
:100868004E0E066EC60E076E410E086EFFEC03F0C4
:1008780001C042F002C043F003C044F004C045F098
:10088800390E4226300E4322000E4422000E452225
:10089800FF0E44140D6E7F0E45140E6E1200640E8A
:1008A800F66E090EF76E000EF86E00EE42F010EECE
:1008B8000CF00900F5CFEEFFE550E150FAE100EE4B
:1008C80080F0540EEE6AE806FDE100EE36F00C0EFC
:1008D800EE6AE806FDE1529052920001B7EF02F08D
:1008E8002D502F02F3CF31F0F4CF32F02D503002DB
:1008F800F35032262E502F02F350322631C02DF0FD
:1009080032C02EF0120001500302F3CF05F0F4CFED
:1009180006F001500402F350062602500302F35079
:10092800062605C001F006C002F01200948C948ED1
:10093800B886AC840C0EAF6EAC98AB8E9E989E9A1F
:10094800AC8AAB889D989F889D8A9F8A12002DC08B
:1009580042F02EC043F0446A456A120001000000CC
:100968000A00020002000100D08EF28EF29C1200F2
:08097800AECF36F0376A120021
:020000040020DA
:08000000FFFFFFFFFFFFFFFF00
:020000040030CA
:0E000000FF081F1EFF8181FF0FC00FE00F40A1
:00000001FF
