:0400000007EF00F016
:10000800418209ED00F038EF03F00600FACF0FF057
:10001800FBCF10F0E9CF11F0EACF12F0E1CF13F0E7
:10002800E2CF14F0D9CF15F0DACF16F0F3CF17F0EE
:10003800F4CF18F0F6CF19F0F7CF1AF0F8CF1BF07D
:10004800F5CF1CF041C01DF042C01EF043C01FF0A8
:1000580044C020F035C009F036C00AF0000E0C6E1E
:100068000A0E0B6ED2EC02F009C03BF00AC03CF05D
:10007800000E046E0A0E036E35C001F036C002F0A1
:1000880090EC02F001C009F002C00AF0000E0C6EFC
:100098000A0E0B6ED2EC02F009C039F00AC03AF031
:1000A80082B08D8282A0F3D13B503C10D8A406D0F8
:1000B8008B9A8B988B968B94829245D03B043C10FC
:1000C800D8A407D08B8A8B988B968B848282808069
:1000D8003BD0020E3B183C10D8A406D08B9A8B98C4
:1000E8008B868B9482920AD0030E3B183C10D8A4BE
:1000F80007D08B9A8B988B968B94828280803CD089
:10010800040E3B183C10D8A402D08B8A30D0050EC0
:100118003B183C10D8A405D08B9A8B888B968B946F
:1001280029D0060E3B183C10D8A403D08B8A8B88A4
:1001380014D0070E3B183C10D8A408D08B9A8B9883
:100148008B968B8482828090838017D0080E3B1810
:100158003C10D8A406D08B9A8B988B968B9482925D
:100168000AD0090E3B183C10D8A407D08B9A8B985C
:100178008B968B8482828090839039503A10D8A4D1
:1001880006D0819A819881968194819245D03904CC
:100198003A10D8A407D0818A819881968184818277
:1001A80081803BD0020E39183A10D8A406D0819A23
:1001B80081988186819481920AD0030E39183A1069
:1001C800D8A407D0819A8198819681948182818070
:1001D8003CD0040E39183A10D8A402D0818A30D005
:1001E800050E39183A10D8A405D0819A81888196CD
:1001F800819429D0060E39183A10D8A403D0818AE0
:10020800818814D0070E39183A10D8A408D0819ADA
:1002180081988196818481828190848017D0080E8C
:1002280039183A10D8A406D0819A81988196819479
:1002380081920AD0090E39183A10D8A407D0819AA9
:10024800819881968184818281908490375038107A
:10025800D8A402D0809E31D037043810D8A406D054
:10026800809E809C16D0809480925ED0020E3718B3
:100278003810D8A407D0809E809C809A8088898670
:10028800809451D0030E37183810D8A406D0808E29
:10029800808C809A80988996E6D7040E3718381093
:1002A800D8A405D0809E808C809A809809D0050EAD
:1002B80037183810D8A406D0808E809C809A808801
:1002C8008986D1D7060E37183810D8A406D0809E54
:1002D800809C809A809889860AD0070E3718381033
:1002E800D8A407D0809E809C808A80988996808434
:1002F800BBD7080E37183810D8A404D0808E809C3D
:10030800809A0ED0090E37183810D8A406D0809ECF
:10031800809C809A80988996B3D7808E808C808ABA
:1003280080888986808480829DB09EA0AAD03F5014
:100338004010D8A405D03F4A402A374A382AA1D0CD
:100348003F044010D8A407D0839E839C839A838857
:10035800838683940DD0020E3F184010D8B47ED007
:10036800030E3F184010D8A405D0839E839C20D04C
:10037800839274D0040E3F184010D8B46FD0050E85
:100388003F184010D8A408D0839E839C839A838802
:1003980083868394838262D0060E3F184010D8B4B7
:1003A8005DD0070E3F184010D8A406D0838E838CEA
:1003B800839A83988396CDD7080E3F184010D8B4F7
:1003C8004DD0090E3F184010D8A405D0839E838CC9
:1003D800839A8398BDD70A0E3F184010D8B43ED0F0
:1003E8000B0E3F184010D8A402D0838EAED70C0E47
:1003F8003F184010D8B432D00D0E3F184010D8A482
:1004080007D0839E839C839A839883868384B0D7FE
:100418000E0E3F184010D8B421D00F0E3F184010D0
:10042800D8A406D0839E839C838A83988396EED72C
:10043800100E3F184010D8B411D0110E3F184010BC
:10044800D8A407D0838E839C839A838883868384E9
:10045800A1D7120E3F184010D8A403D03F4A402A13
:1004680010D0130E3F184010D8A40BD0839E839C45
:10047800839A8398839683948382000E406E000E3D
:100488003F6E9E900B0ECF6EDB0ECE6E1FD0000E11
:10049800406E000E3F6E9E900B0ECF6EDB0ECE6E42
:1004A80037683868000E3E6E000E3D6E89688C68AD
:1004B800828A82888286828482828290818A8188E6
:1004C800818681848182818084808D9220C044F0DD
:1004D8001FC043F01EC042F01DC041F01CC0F5FF14
:1004E8001BC0F8FF1AC0F7FF19C0F6FF18C0F4FFC9
:1004F80017C0F3FF16C0DAFF15C0D9FF14C0E2FF1A
:1005080013C0E1FF12C0EAFF11C0E9FF10C0FBFFF2
:100518000FC0FAFF41921100000E066E04AE06D01D
:10052800036C041ED8B0042A010E066E02AE06D073
:10053800016C021ED8B0022A010E061A000E086EBF
:10054800000E076E03500410D8B41CD0010E056EBF
:1005580004D0D89003360436052A04AEFAD7D890CA
:10056800073608360350015C04500258D8A005D05D
:100578000350015E0450025A0780D89004320332B7
:10058800052EEDD70650D8B404D0076C081ED8B095
:10059800082A07C001F008C002F01200000E0E6E13
:1005A8000AAE06D0096C0A1ED8B00A2A010E0E6ED1
:1005B8000CAE04D00B6C0C1ED8B00C2A0B500C10CF
:1005C800D8B418D0010E0D6E04D0D8900B360C3666
:1005D8000D2A0CAEFAD70B50095C0C500A58D8A05B
:1005E80004D00B50095E0C500A5AD8900C320B32CA
:1005F8000D2EF1D70E50D8B404D0096C0A1ED8B00D
:100608000A2A09C009F00AC00AF01200D08E939A8B
:10061800939893969394939293909690949A94988F
:1006280094969494949294809692000E926E000EF2
:10063800956E89688C688B8A8B888B868B848B8275
:100648008A8A8A888A868A848A828A808D808D921C
:100658008B909D809F809E90950ECD6EF28E0B0E96
:10066800CF6EDB0ECE6EFFD7A60EF66E060EF76EB9
:10067800000EF86E00EE21F010EE18F00900F5CF2C
:10068800EEFFE550E150FAE100EE39F0080EEE6AAF
:10069800E806FDE14190419200010AEF03F00300F2
:1006A8009F0025000D0099004900C1001B000100B2
:0606B80019000B00FFFF1A
:020000040020DA
:08000000FFFFFFFFFFFFFFFF00
:020000040030CA
:0E000000FF081F1EFF8181FF0FC00FE00F40A1
:00000001FF
